:100000000C945D000C9485000C9485000C94850084
:100010000C9485000C9485000C9485000C9485004C
:100020000C9485000C9485000C9485000C9485003C
:100030000C9485000C9485000C9485000C9485002C
:100040000C94B1020C9485000C9421030C94FB02D7
:100050000C9485000C9485000C9485000C9485000C
:100060000C9485000C9485000000000024002700FB
:100070002A0000000000250028002B0004040404CE
:100080000404040402020202020203030303030342
:10009000010204081020408001020408102001021F
:1000A00004081020000000080002010000030407FB
:1000B00000000000000000000B0411241FBECFEF61
:1000C000D8E0DEBFCDBF21E0AEE1B1E001C01D92BE
:1000D000A83CB207E1F711E0A0E0B1E0ECE3FDE0FD
:1000E00002C005900D92AE31B107D9F710E0CDE511
:1000F000D0E004C02197FE010E94A404CC35D107B2
:10010000C9F70E9453030C949C060C940000E1EB89
:10011000F0E02491EDE9F0E09491E9E8F0E0E49179
:10012000EE23C9F0222339F0233001F1A8F4213065
:1001300019F1223029F1F0E0EE0FFF1FEE58FF4FCA
:10014000A591B4912FB7F894EC91811126C09095A8
:100150009E239C932FBF08952730A9F02830C9F023
:10016000243049F7209180002F7D03C0209180002A
:100170002F7720938000DFCF24B52F7724BDDBCFEE
:1001800024B52F7DFBCF2091B0002F772093B000B6
:10019000D2CF2091B0002F7DF9CF9E2BDACF3FB781
:1001A000F8948091230190912401A0912501B091B0
:1001B000260126B5A89B05C02F3F19F00196A11D69
:1001C000B11D3FBFBA2FA92F982F8827BC01CD01A1
:1001D000620F711D811D911D42E0660F771F881F00
:1001E000991F4A95D1F708958F929F92AF92BF922F
:1001F000CF92DF92EF92FF924B015C010E94CF0001
:100200006B017C010E94CF006C197D098E099F094A
:10021000683E734081059105A8F321E0821A910898
:10022000A108B10888EEC80E83E0D81EE11CF11CBD
:1002300081149104A104B10429F7FF90EF90DF909D
:10024000CF90BF90AF909F908F900895AF92BF9244
:10025000CF92DF92EF92FF920F931F93CF93DF9392
:100260006C017B018B01040F151FEB015E01AE18C1
:10027000BF08C017D10759F06991D601ED91FC91E3
:100280000190F081E02DC6010995892B79F7C50110
:10029000DF91CF911F910F91FF90EF90DF90CF9062
:1002A000BF90AF900895FC01538D448D252F30E011
:1002B000842F90E0821B930B541710F0CF96089573
:1002C00001970895FC01918D828D981761F0A28DA0
:1002D000AE0FBF2FB11D5D968C91928D9F5F9F7366
:1002E000928F90E008958FEF9FEF0895FC01918D1C
:1002F000828D981731F0828DE80FF11D858D90E089
:1003000008958FEF9FEF0895FC01918D228D892F25
:1003100090E0805C9F4F821B91098F73992708950D
:1003200087E291E00E94840121E0892B09F420E01A
:10033000822F089580E090E0892B29F00E9490019F
:1003400081110C9400000895FC01A48DA80FB92F11
:10035000B11DA35ABF4F2C91848D90E001968F73ED
:100360009927848FA689B7892C93A089B1898C910C
:10037000837080648C93938D848D981306C002885B
:10038000F389E02D80818F7D80830895EF92FF9225
:100390000F931F93CF93DF93EC0181E0888F9B8DA8
:1003A0008C8D98131AC0E889F989808185FF15C062
:1003B0009FB7F894EE89FF896083E889F989808185
:1003C0008370806480839FBF81E090E0DF91CF9154
:1003D0001F910F91FF90EF900895F62E0B8D10E076
:1003E0000F5F1F4F0F731127E02E8C8D8E110CC0E5
:1003F0000FB607FCFACFE889F989808185FFF5CF30
:10040000CE010E94A401F1CFEB8DEC0FFD2FF11D69
:10041000E35AFF4FF0829FB7F8940B8FEA89FB896C
:1004200080818062CFCFCF93DF93EC01888D8823CA
:10043000B9F0AA89BB89E889F9898C9185FD03C047
:10044000808186FD0DC00FB607FCF7CF8C9185FF2C
:10045000F2CF808185FFEDCFCE010E94A401E9CFCC
:10046000DF91CF910895FC0101900020E9F73197C9
:10047000AF01481B590BBC0187E291E00C942601A7
:10048000CF92DF92EF92FF920F931F93CF93DF9360
:10049000CDB7DEB7A1970FB6F894DEBF0FBECDBFC4
:1004A0008C0188E191E00E94330219A281E388A3C4
:1004B000CE0180960E9433024AE0CE0101966C0183
:1004C000BC01C8010E943804F60101900020E9F740
:1004D00031978F010C191D09B8016F5F7F4F90E0B4
:1004E00080E00E94CF057C01009749F1FC01108259
:1004F000B6010E949506A801B70187E291E00E942B
:1005000026018AE191E00E94330262E370E080E01C
:1005100090E00E94F400E114F104A1F0C701A1965B
:100520000FB6F894DEBF0FBECDBFDF91CF911F9104
:100530000F91FF90EF90DF90CF900C94460510E064
:1005400000E0D9CFA1960FB6F894DEBF0FBECDBFA5
:10055000DF91CF911F910F91FF90EF90DF90CF909F
:1005600008951F920F920FB60F9211242F933F936D
:100570008F939F93AF93BF9380911F019091200120
:10058000A0912101B091220130911E0123E0230F9F
:100590002D3758F50196A11DB11D20931E018093A2
:1005A0001F0190932001A0932101B093220180911B
:1005B000230190912401A0912501B091260101967B
:1005C000A11DB11D8093230190932401A0932501C7
:1005D000B0932601BF91AF919F918F913F912F9141
:1005E0000F900FBE0F901F90189526E8230F0296CC
:1005F000A11DB11DD2CF1F920F920FB60F921124E1
:100600002F933F934F935F936F937F938F939F931A
:10061000AF93BF93EF93FF9387E291E00E94A40111
:10062000FF91EF91BF91AF919F918F917F916F91CA
:100630005F914F913F912F910F900FBE0F901F90A0
:1006400018951F920F920FB60F9211242F938F932C
:100650009F93EF93FF93E0913701F09138018081F0
:10066000E0913D01F0913E0182FD1BC0908180919F
:1006700040018F5F8F7320914101821741F0E0911B
:100680004001F0E0E95DFE4F958F80934001FF91BE
:10069000EF919F918F912F910F900FBE0F901F9010
:1006A00018958081F4CF789484B5826084BD84B538
:1006B000816084BD85B5826085BD85B5816085BD5D
:1006C00080916E00816080936E0010928100809115
:1006D000810082608093810080918100816080939D
:1006E0008100809180008160809380008091B100C2
:1006F00084608093B1008091B00081608093B000ED
:1007000080917A00846080937A0080917A00826080
:1007100080937A0080917A00816080937A00809142
:100720007A00806880937A001092C100E0913701CE
:10073000F091380182E08083E0913301F09134013F
:100740001082E0913501F09136018FEC8083109298
:100750003F01E0913B01F0913C0186E08083E09114
:100760003901F0913A01808180618083E091390103
:10077000F0913A01808188608083E0913901F091A5
:100780003A01808180688083E0913901F0913A01DB
:1007900080818F7D8083EDE9F0E02491E9E8F0E04D
:1007A0008491882399F090E0880F991FFC01E85903
:1007B000FF4FA591B491FC01EE58FF4F85919491A4
:1007C0008FB7F894EC91E22BEC938FBFC0E0D0E0B0
:1007D00081E00E94870081E090E00E94400264EF87
:1007E00071E080E090E00E94F40080E00E948700C9
:1007F00090E080E00E94400264EF71E080E090E0D1
:100800000E94F400209721F30E949001882301F3B5
:100810000E940000DDCFE7E2F1E01382128288EE51
:1008200093E0A0E0B0E084839583A683B7838AE059
:1008300091E09183808385EC90E09587848784ECB8
:1008400090E09787868780EC90E0918B808B81EC9D
:1008500090E0938B828B82EC90E0958B848B86EC7E
:1008600090E0978B868B118E128E138E148E0895C6
:10087000BB274A3031F4992322F4BDE2909581954B
:100880009F4F0C944404BB27FB015527AA27880FD0
:10089000991FAA1FA41710F0A41B83955051B9F7F4
:1008A000A05DAA3308F0A95DA193009779F7B11173
:1008B000B1931192CB010C945D04DC01FC01672F14
:1008C00071917723E1F7329704C07C916D93708327
:1008D0006291AE17BF07C8F308952F923F924F92CF
:1008E0005F926F927F928F929F92AF92BF92CF92C0
:1008F000DF92EF92FF920F931F93CF93DF93CDB7C9
:10090000DEB7CA1BDB0B0FB6F894DEBF0FBECDBF40
:1009100009942A88398848885F846E847D848C8411
:100920009B84AA84B984C884DF80EE80FD800C811A
:100930001B81AA81B981CE0FD11D0FB6F894DEBFFD
:100940000FBECDBFED010895EE0FFF1F0590F4918E
:10095000E02D09940F931F93CF93DF93823091057D
:1009600010F482E090E0E091C601F091C70130E020
:1009700020E0B0E0A0E0309799F42115310509F4AA
:100980004AC0281B390B24303105D8F58A819B8158
:100990006115710589F1FB0193838283FE0111C00A
:1009A000408151810281138148175907E0F04817AF
:1009B000590799F4109761F012960C9312971396B9
:1009C0001C933296CF01DF91CF911F910F91089523
:1009D0000093C6011093C701F4CF2115310551F0E2
:1009E0004217530738F0A901DB019A01BD01DF016D
:1009F000F801C1CFEF01F9CF9093C7018093C601F1
:100A0000CDCFFE01E20FF31F819391932250310964
:100A100039832883D7CF2091C4013091C501232B7E
:100A200041F420910201309103013093C5012093DC
:100A3000C40120910001309101012115310541F4DB
:100A40002DB73EB74091040150910501241B350B91
:100A5000E091C401F091C501E217F307A0F42E1B49
:100A60003F0B2817390778F0AC014E5F5F4F241712
:100A7000350748F04E0F5F1F5093C5014093C401E6
:100A8000819391939FCFF0E0E0E09CCFCF93DF93F1
:100A90000097E9F0FC01329713821282A091C601FF
:100AA000B091C701ED0130E020E01097A1F4208162
:100AB0003181820F931F2091C4013091C501281705
:100AC000390709F061C0F093C501E093C401DF91DB
:100AD000CF910895EA01CE17DF07E8F54A815B81DF
:100AE0009E0141155105B1F7E901FB83EA83499164
:100AF0005991C40FD51FEC17FD0761F480819181D6
:100B00000296840F951FE9019983888382819381DE
:100B10009B838A83F0E0E0E012968D919C9113977D
:100B20000097B9F52D913C911197CD010296820F56
:100B3000931F2091C4013091C5012817390739F658
:100B4000309751F51092C7011092C601B093C501BC
:100B5000A093C401BCCFD383C28340815181840F51
:100B6000951FC817D90761F44E5F5F4F888199813F
:100B7000480F591F518340838A819B8193838283CD
:100B80002115310509F0B0CFF093C701E093C601FC
:100B90009ECFFD01DC01C0CF13821282D7CFB0E01F
:100BA000A0E0E5EDF5E00C946F048C01009751F4A2
:100BB000CB010E94AA048C01C801CDB7DEB7E0E1E9
:100BC0000C948B04FC01E60FF71F9C0122503109A5
:100BD000E217F30708F49DC0D901CD91DC9111977C
:100BE000C617D70798F0C530D10530F3CE0104976A
:100BF0008617970708F3C61BD70B2297C193D1938B
:100C00006D937C93CF010E944605D6CF5B01AC1A51
:100C1000BD0A4C018C0E9D1EA091C601B091C7016A
:100C2000512C412CF12CE12C109731F58091C4010D
:100C30009091C5018815990509F05CC046165706C4
:100C400008F058C08091000190910101009741F493
:100C50008DB79EB74091040150910501841B950BFF
:100C6000E817F90708F055C0F093C501E093C401F7
:100C7000F90171836083A0CF8D919C911197129699
:100C80006C90129713967C901397A815B90559F597
:100C90006C0142E0C40ED11CCA14DB0420F1AC018B
:100CA0004A195B09DA011296159780F06282738205
:100CB00051834083D9016D937C93E114F10471F069
:100CC000D7011396FC93EE93129776CF22968C0F52
:100CD0009D1FF90191838083F301EFCFF093C7014A
:100CE000E093C60169CF4816590608F42C017D012E
:100CF000D3019ACFCB010E94AA047C01009749F04E
:100D0000AE01B8010E948C06C8010E944605870109
:100D100053CF10E000E050CFFB01DC0102C0019096
:100D20000D9241505040D8F70895FB01DC0101902D
:0C0D30000D920020E1F70895F894FFCF29
:100D3C000000C801800000000000C601260153011C
:0E0D4C00130284016201760123000D0A0000EB
:00000001FF
